{
  "abi": [
    {
      "inputs": [
        {
          "internalType": "contract ISt3mz",
          "name": "st3mz_",
          "type": "address"
        }
      ],
      "stateMutability": "nonpayable",
      "type": "constructor"
    },
    {
      "inputs": [
        {
          "internalType": "uint256",
          "name": "id",
          "type": "uint256"
        }
      ],
      "name": "getToken",
      "outputs": [
        {
          "components": [
            {
              "internalType": "uint256",
              "name": "id",
              "type": "uint256"
            },
            {
              "internalType": "address",
              "name": "minter",
              "type": "address"
            },
            {
              "internalType": "string",
              "name": "uri",
              "type": "string"
            },
            {
              "internalType": "uint256",
              "name": "supply",
              "type": "uint256"
            },
            {
              "internalType": "uint256",
              "name": "price",
              "type": "uint256"
            },
            {
              "internalType": "uint256",
              "name": "available",
              "type": "uint256"
            }
          ],
          "internalType": "struct St3mzUtil.St3mzNft",
          "name": "",
          "type": "tuple"
        }
      ],
      "stateMutability": "view",
      "type": "function"
    },
    {
      "inputs": [
        {
          "internalType": "uint256",
          "name": "pageSize",
          "type": "uint256"
        },
        {
          "internalType": "uint256",
          "name": "pageNum",
          "type": "uint256"
        },
        {
          "internalType": "bool",
          "name": "reverse",
          "type": "bool"
        }
      ],
      "name": "getTokens",
      "outputs": [
        {
          "components": [
            {
              "internalType": "uint256",
              "name": "id",
              "type": "uint256"
            },
            {
              "internalType": "address",
              "name": "minter",
              "type": "address"
            },
            {
              "internalType": "string",
              "name": "uri",
              "type": "string"
            },
            {
              "internalType": "uint256",
              "name": "supply",
              "type": "uint256"
            },
            {
              "internalType": "uint256",
              "name": "price",
              "type": "uint256"
            },
            {
              "internalType": "uint256",
              "name": "available",
              "type": "uint256"
            }
          ],
          "internalType": "struct St3mzUtil.St3mzNft[]",
          "name": "",
          "type": "tuple[]"
        }
      ],
      "stateMutability": "view",
      "type": "function"
    },
    {
      "inputs": [],
      "name": "st3mz",
      "outputs": [
        {
          "internalType": "contract ISt3mz",
          "name": "",
          "type": "address"
        }
      ],
      "stateMutability": "view",
      "type": "function"
    }
  ],
  "bytecode": {
    "object": "0x60a060405234801561001057600080fd5b506040516109dc3803806109dc83398101604081905261002f91610040565b6001600160a01b0316608052610070565b60006020828403121561005257600080fd5b81516001600160a01b038116811461006957600080fd5b9392505050565b6080516109286100b4600039600081816074015281816101050152818161018001528181610218015281816102ac0152818161034001526103db01526109286000f3fe608060405234801561001057600080fd5b50600436106100415760003560e01c8063e4b50cb814610046578063eb62d96e1461006f578063eee94805146100ae575b600080fd5b6100596100543660046105f0565b6100ce565b604051610066919061069b565b60405180910390f35b6100967f000000000000000000000000000000000000000000000000000000000000000081565b6040516001600160a01b039091168152602001610066565b6100c16100bc3660046106ae565b6103d5565b60405161006691906106ec565b6100d66105b1565b6040805160c0810182528381529051632b23615b60e21b81526004810184905260208201906001600160a01b037f0000000000000000000000000000000000000000000000000000000000000000169063ac8d856c90602401602060405180830381865afa15801561014c573d6000803e3d6000fd5b505050506040513d601f19601f82011682018060405250810190610170919061074e565b6001600160a01b031681526020017f00000000000000000000000000000000000000000000000000000000000000006001600160a01b0316630e89341c856040518263ffffffff1660e01b81526004016101cc91815260200190565b600060405180830381865afa1580156101e9573d6000803e3d6000fd5b505050506040513d6000823e601f3d908101601f19168201604052610211919081019061078d565b81526020017f00000000000000000000000000000000000000000000000000000000000000006001600160a01b03166335403023856040518263ffffffff1660e01b815260040161026491815260200190565b602060405180830381865afa158015610281573d6000803e3d6000fd5b505050506040513d601f19601f820116820180604052508101906102a5919061083a565b81526020017f00000000000000000000000000000000000000000000000000000000000000006001600160a01b03166326a49e37856040518263ffffffff1660e01b81526004016102f891815260200190565b602060405180830381865afa158015610315573d6000803e3d6000fd5b505050506040513d601f19601f82011682018060405250810190610339919061083a565b81526020017f00000000000000000000000000000000000000000000000000000000000000006001600160a01b03166396e494e8856040518263ffffffff1660e01b815260040161038c91815260200190565b602060405180830381865afa1580156103a9573d6000803e3d6000fd5b505050506040513d601f19601f820116820180604052508101906103cd919061083a565b905292915050565b606060007f00000000000000000000000000000000000000000000000000000000000000006001600160a01b0316637e1c0c096040518163ffffffff1660e01b8152600401602060405180830381865afa158015610437573d6000803e3d6000fd5b505050506040513d601f19601f8201168201806040525081019061045b919061083a565b905060008561046986610869565b95506104759086610880565b90506000610483878361089d565b9050828111156104905750815b8181116104d35760408051600080825260208201909252906104c8565b6104b56105b1565b8152602001906001900390816104ad5790505b5093505050506105aa565b60006104df83836108b0565b67ffffffffffffffff8111156104f7576104f7610777565b60405190808252806020026020018201604052801561053057816020015b61051d6105b1565b8152602001906001900390816105155790505b509050825b828110156105a3576000876105545761054f82600161089d565b61055e565b61055e82876108b0565b9050610569816100ce565b8361057487856108b0565b81518110610584576105846108c3565b602002602001018190525050808061059b906108d9565b915050610535565b5093505050505b9392505050565b6040518060c001604052806000815260200160006001600160a01b03168152602001606081526020016000815260200160008152602001600081525090565b60006020828403121561060257600080fd5b5035919050565b60005b8381101561062457818101518382015260200161060c565b50506000910152565b8051825260018060a01b0360208201511660208301526000604082015160c0604085015280518060c086015261066a8160e0870160208501610609565b606084810151908601526080808501519086015260a093840151938501939093525050601f01601f19160160e00190565b6020815260006105aa602083018461062d565b6000806000606084860312156106c357600080fd5b8335925060208401359150604084013580151581146106e157600080fd5b809150509250925092565b6000602080830181845280855180835260408601915060408160051b870101925083870160005b8281101561074157603f1988860301845261072f85835161062d565b94509285019290850190600101610713565b5092979650505050505050565b60006020828403121561076057600080fd5b81516001600160a01b03811681146105aa57600080fd5b634e487b7160e01b600052604160045260246000fd5b60006020828403121561079f57600080fd5b815167ffffffffffffffff808211156107b757600080fd5b818401915084601f8301126107cb57600080fd5b8151818111156107dd576107dd610777565b604051601f8201601f19908116603f0116810190838211818310171561080557610805610777565b8160405282815287602084870101111561081e57600080fd5b61082f836020830160208801610609565b979650505050505050565b60006020828403121561084c57600080fd5b5051919050565b634e487b7160e01b600052601160045260246000fd5b60008161087857610878610853565b506000190190565b808202811582820484141761089757610897610853565b92915050565b8082018082111561089757610897610853565b8181038181111561089757610897610853565b634e487b7160e01b600052603260045260246000fd5b6000600182016108eb576108eb610853565b506001019056fea2646970667358221220e8c123055379ade06c9d56e15b8b4aacbe742684e94f5ca7d927d529f10be9e264736f6c63430008110033",
    "linkReferences": {}
  },
  "methodIdentifiers": {
    "getToken(uint256)": "e4b50cb8",
    "getTokens(uint256,uint256,bool)": "eee94805",
    "st3mz()": "eb62d96e"
  },
  "id": 10
}