{
  "abi": [
    {
      "inputs": [
        {
          "internalType": "contract ISt3mz",
          "name": "st3mz_",
          "type": "address"
        }
      ],
      "stateMutability": "nonpayable",
      "type": "constructor"
    },
    {
      "inputs": [
        {
          "internalType": "uint256",
          "name": "id",
          "type": "uint256"
        }
      ],
      "name": "getToken",
      "outputs": [
        {
          "components": [
            {
              "internalType": "uint256",
              "name": "id",
              "type": "uint256"
            },
            {
              "internalType": "address",
              "name": "minter",
              "type": "address"
            },
            {
              "internalType": "string",
              "name": "uri",
              "type": "string"
            },
            {
              "internalType": "uint256",
              "name": "supply",
              "type": "uint256"
            },
            {
              "internalType": "uint256",
              "name": "price",
              "type": "uint256"
            },
            {
              "internalType": "uint256",
              "name": "available",
              "type": "uint256"
            }
          ],
          "internalType": "struct St3mzUtil.St3mzNft",
          "name": "",
          "type": "tuple"
        }
      ],
      "stateMutability": "view",
      "type": "function"
    },
    {
      "inputs": [
        {
          "internalType": "uint256",
          "name": "pageSize",
          "type": "uint256"
        },
        {
          "internalType": "uint256",
          "name": "pageNum",
          "type": "uint256"
        },
        {
          "internalType": "bool",
          "name": "reverse",
          "type": "bool"
        }
      ],
      "name": "getTokens",
      "outputs": [
        {
          "components": [
            {
              "internalType": "uint256",
              "name": "id",
              "type": "uint256"
            },
            {
              "internalType": "address",
              "name": "minter",
              "type": "address"
            },
            {
              "internalType": "string",
              "name": "uri",
              "type": "string"
            },
            {
              "internalType": "uint256",
              "name": "supply",
              "type": "uint256"
            },
            {
              "internalType": "uint256",
              "name": "price",
              "type": "uint256"
            },
            {
              "internalType": "uint256",
              "name": "available",
              "type": "uint256"
            }
          ],
          "internalType": "struct St3mzUtil.St3mzNft[]",
          "name": "",
          "type": "tuple[]"
        }
      ],
      "stateMutability": "view",
      "type": "function"
    },
    {
      "inputs": [],
      "name": "st3mz",
      "outputs": [
        {
          "internalType": "contract ISt3mz",
          "name": "",
          "type": "address"
        }
      ],
      "stateMutability": "view",
      "type": "function"
    }
  ],
  "bytecode": {
    "object": "0x60a060405234801561001057600080fd5b5060405161099e38038061099e83398101604081905261002f91610040565b6001600160a01b0316608052610070565b60006020828403121561005257600080fd5b81516001600160a01b038116811461006957600080fd5b9392505050565b6080516108ea6100b4600039600081816074015281816101050152818161018001528181610218015281816102ac0152818161034001526103db01526108ea6000f3fe608060405234801561001057600080fd5b50600436106100415760003560e01c8063e4b50cb814610046578063eb62d96e1461006f578063eee94805146100ae575b600080fd5b6100596100543660046105ab565b6100ce565b6040516100669190610656565b60405180910390f35b6100967f000000000000000000000000000000000000000000000000000000000000000081565b6040516001600160a01b039091168152602001610066565b6100c16100bc366004610670565b6103d5565b60405161006691906106ae565b6100d661056c565b6040805160c0810182528381529051632b23615b60e21b81526004810184905260208201906001600160a01b037f0000000000000000000000000000000000000000000000000000000000000000169063ac8d856c90602401602060405180830381865afa15801561014c573d6000803e3d6000fd5b505050506040513d601f19601f820116820180604052508101906101709190610710565b6001600160a01b031681526020017f00000000000000000000000000000000000000000000000000000000000000006001600160a01b0316630e89341c856040518263ffffffff1660e01b81526004016101cc91815260200190565b600060405180830381865afa1580156101e9573d6000803e3d6000fd5b505050506040513d6000823e601f3d908101601f19168201604052610211919081019061074f565b81526020017f00000000000000000000000000000000000000000000000000000000000000006001600160a01b03166335403023856040518263ffffffff1660e01b815260040161026491815260200190565b602060405180830381865afa158015610281573d6000803e3d6000fd5b505050506040513d601f19601f820116820180604052508101906102a591906107fc565b81526020017f00000000000000000000000000000000000000000000000000000000000000006001600160a01b03166326a49e37856040518263ffffffff1660e01b81526004016102f891815260200190565b602060405180830381865afa158015610315573d6000803e3d6000fd5b505050506040513d601f19601f8201168201806040525081019061033991906107fc565b81526020017f00000000000000000000000000000000000000000000000000000000000000006001600160a01b03166396e494e8856040518263ffffffff1660e01b815260040161038c91815260200190565b602060405180830381865afa1580156103a9573d6000803e3d6000fd5b505050506040513d601f19601f820116820180604052508101906103cd91906107fc565b905292915050565b606060007f00000000000000000000000000000000000000000000000000000000000000006001600160a01b0316637e1c0c096040518163ffffffff1660e01b8152600401602060405180830381865afa158015610437573d6000803e3d6000fd5b505050506040513d601f19601f8201168201806040525081019061045b91906107fc565b90506000856104698661082b565b95506104759086610842565b90506000610483878361085f565b9050828111156104905750815b600061049c8383610872565b67ffffffffffffffff8111156104b4576104b4610739565b6040519080825280602002602001820160405280156104ed57816020015b6104da61056c565b8152602001906001900390816104d25790505b509050825b82811015610560576000876105115761050c82600161085f565b61051b565b61051b8287610872565b9050610526816100ce565b836105318785610872565b8151811061054157610541610885565b60200260200101819052505080806105589061089b565b9150506104f2565b50979650505050505050565b6040518060c001604052806000815260200160006001600160a01b03168152602001606081526020016000815260200160008152602001600081525090565b6000602082840312156105bd57600080fd5b5035919050565b60005b838110156105df5781810151838201526020016105c7565b50506000910152565b8051825260018060a01b0360208201511660208301526000604082015160c0604085015280518060c08601526106258160e08701602085016105c4565b606084810151908601526080808501519086015260a093840151938501939093525050601f01601f19160160e00190565b60208152600061066960208301846105e8565b9392505050565b60008060006060848603121561068557600080fd5b8335925060208401359150604084013580151581146106a357600080fd5b809150509250925092565b6000602080830181845280855180835260408601915060408160051b870101925083870160005b8281101561070357603f198886030184526106f18583516105e8565b945092850192908501906001016106d5565b5092979650505050505050565b60006020828403121561072257600080fd5b81516001600160a01b038116811461066957600080fd5b634e487b7160e01b600052604160045260246000fd5b60006020828403121561076157600080fd5b815167ffffffffffffffff8082111561077957600080fd5b818401915084601f83011261078d57600080fd5b81518181111561079f5761079f610739565b604051601f8201601f19908116603f011681019083821181831017156107c7576107c7610739565b816040528281528760208487010111156107e057600080fd5b6107f18360208301602088016105c4565b979650505050505050565b60006020828403121561080e57600080fd5b5051919050565b634e487b7160e01b600052601160045260246000fd5b60008161083a5761083a610815565b506000190190565b808202811582820484141761085957610859610815565b92915050565b8082018082111561085957610859610815565b8181038181111561085957610859610815565b634e487b7160e01b600052603260045260246000fd5b6000600182016108ad576108ad610815565b506001019056fea2646970667358221220014c8b86d81bad70e7010e2bd9e09e2d579ba5db056a7ea5c3a0ade1436ba74e64736f6c63430008110033",
    "linkReferences": {}
  },
  "methodIdentifiers": {
    "getToken(uint256)": "e4b50cb8",
    "getTokens(uint256,uint256,bool)": "eee94805",
    "st3mz()": "eb62d96e"
  },
  "id": 9
}