{
  "abi": [
    {
      "inputs": [],
      "name": "St3mz__AmountNotAvailable",
      "type": "error"
    },
    {
      "inputs": [],
      "name": "St3mz__AmountZero",
      "type": "error"
    },
    {
      "inputs": [],
      "name": "St3mz__BalanceZero",
      "type": "error"
    },
    {
      "inputs": [],
      "name": "St3mz__EmptyUri",
      "type": "error"
    },
    {
      "inputs": [],
      "name": "St3mz__InvalidValueSent",
      "type": "error"
    },
    {
      "inputs": [],
      "name": "St3mz__PriceZero",
      "type": "error"
    },
    {
      "inputs": [],
      "name": "St3mz__TransferFailed",
      "type": "error"
    },
    {
      "anonymous": false,
      "inputs": [
        {
          "indexed": true,
          "internalType": "address",
          "name": "buyer",
          "type": "address"
        },
        {
          "indexed": false,
          "internalType": "uint256",
          "name": "id",
          "type": "uint256"
        },
        {
          "indexed": false,
          "internalType": "uint256",
          "name": "amount",
          "type": "uint256"
        }
      ],
      "name": "Buy",
      "type": "event"
    },
    {
      "anonymous": false,
      "inputs": [
        {
          "indexed": true,
          "internalType": "address",
          "name": "minter",
          "type": "address"
        },
        {
          "indexed": false,
          "internalType": "uint256",
          "name": "id",
          "type": "uint256"
        },
        {
          "indexed": false,
          "internalType": "string",
          "name": "uri",
          "type": "string"
        },
        {
          "indexed": false,
          "internalType": "uint256",
          "name": "supply",
          "type": "uint256"
        },
        {
          "indexed": false,
          "internalType": "uint256",
          "name": "price",
          "type": "uint256"
        }
      ],
      "name": "Mint",
      "type": "event"
    },
    {
      "inputs": [
        {
          "internalType": "uint256",
          "name": "",
          "type": "uint256"
        }
      ],
      "name": "available",
      "outputs": [
        {
          "internalType": "uint256",
          "name": "",
          "type": "uint256"
        }
      ],
      "stateMutability": "view",
      "type": "function"
    },
    {
      "inputs": [
        {
          "internalType": "address",
          "name": "",
          "type": "address"
        },
        {
          "internalType": "uint256",
          "name": "",
          "type": "uint256"
        }
      ],
      "name": "balanceOf",
      "outputs": [
        {
          "internalType": "uint256",
          "name": "",
          "type": "uint256"
        }
      ],
      "stateMutability": "view",
      "type": "function"
    },
    {
      "inputs": [
        {
          "internalType": "uint256",
          "name": "id_",
          "type": "uint256"
        },
        {
          "internalType": "uint256",
          "name": "amount_",
          "type": "uint256"
        }
      ],
      "name": "buy",
      "outputs": [],
      "stateMutability": "payable",
      "type": "function"
    },
    {
      "inputs": [
        {
          "internalType": "string",
          "name": "uri_",
          "type": "string"
        },
        {
          "internalType": "uint256",
          "name": "amount_",
          "type": "uint256"
        },
        {
          "internalType": "uint256",
          "name": "price_",
          "type": "uint256"
        }
      ],
      "name": "mint",
      "outputs": [],
      "stateMutability": "nonpayable",
      "type": "function"
    },
    {
      "inputs": [
        {
          "internalType": "uint256",
          "name": "",
          "type": "uint256"
        }
      ],
      "name": "minter",
      "outputs": [
        {
          "internalType": "address",
          "name": "",
          "type": "address"
        }
      ],
      "stateMutability": "view",
      "type": "function"
    },
    {
      "inputs": [],
      "name": "name",
      "outputs": [
        {
          "internalType": "string",
          "name": "",
          "type": "string"
        }
      ],
      "stateMutability": "view",
      "type": "function"
    },
    {
      "inputs": [
        {
          "internalType": "uint256",
          "name": "",
          "type": "uint256"
        }
      ],
      "name": "price",
      "outputs": [
        {
          "internalType": "uint256",
          "name": "",
          "type": "uint256"
        }
      ],
      "stateMutability": "view",
      "type": "function"
    },
    {
      "inputs": [
        {
          "internalType": "uint256",
          "name": "",
          "type": "uint256"
        }
      ],
      "name": "supply",
      "outputs": [
        {
          "internalType": "uint256",
          "name": "",
          "type": "uint256"
        }
      ],
      "stateMutability": "view",
      "type": "function"
    },
    {
      "inputs": [
        {
          "internalType": "bytes4",
          "name": "interfaceId_",
          "type": "bytes4"
        }
      ],
      "name": "supportsInterface",
      "outputs": [
        {
          "internalType": "bool",
          "name": "",
          "type": "bool"
        }
      ],
      "stateMutability": "pure",
      "type": "function"
    },
    {
      "inputs": [],
      "name": "symbol",
      "outputs": [
        {
          "internalType": "string",
          "name": "",
          "type": "string"
        }
      ],
      "stateMutability": "view",
      "type": "function"
    },
    {
      "inputs": [],
      "name": "totalTokens",
      "outputs": [
        {
          "internalType": "uint256",
          "name": "",
          "type": "uint256"
        }
      ],
      "stateMutability": "view",
      "type": "function"
    },
    {
      "inputs": [
        {
          "internalType": "uint256",
          "name": "id_",
          "type": "uint256"
        }
      ],
      "name": "uri",
      "outputs": [
        {
          "internalType": "string",
          "name": "",
          "type": "string"
        }
      ],
      "stateMutability": "view",
      "type": "function"
    },
    {
      "inputs": [],
      "name": "withdraw",
      "outputs": [],
      "stateMutability": "nonpayable",
      "type": "function"
    },
    {
      "inputs": [
        {
          "internalType": "address",
          "name": "",
          "type": "address"
        }
      ],
      "name": "withdrawableBalance",
      "outputs": [
        {
          "internalType": "uint256",
          "name": "",
          "type": "uint256"
        }
      ],
      "stateMutability": "view",
      "type": "function"
    }
  ],
  "bytecode": {
    "object": "0x6080604052600160005534801561001557600080fd5b50610bec806100256000396000f3fe6080604052600436106100dc5760003560e01c8063354030231161007f57806395d89b411161005957806395d89b411461029157806396e494e8146102c2578063ac8d856c146102ef578063d6febde81461033d57600080fd5b8063354030231461023a5780633ccfd60b146102675780637e1c0c091461027c57600080fd5b806306fdde03116100bb57806306fdde03146101895780630e89341c146101cb5780631c635ded146101eb57806326a49e371461020d57600080fd5b8062fdd58e146100e157806301ffc9a71461012c57806302b629381461015c575b600080fd5b3480156100ed57600080fd5b506101196100fc366004610825565b600560209081526000928352604080842090915290825290205481565b6040519081526020015b60405180910390f35b34801561013857600080fd5b5061014c61014736600461084f565b610350565b6040519015158152602001610123565b34801561016857600080fd5b50610119610177366004610880565b60066020526000908152604090205481565b34801561019557600080fd5b506101be6040518060400160405280600981526020016814dd0cdb5e8813919560ba1b81525081565b604051610123919061089b565b3480156101d757600080fd5b506101be6101e63660046108e9565b610387565b3480156101f757600080fd5b5061020b610206366004610902565b610429565b005b34801561021957600080fd5b506101196102283660046108e9565b60026020526000908152604090205481565b34801561024657600080fd5b506101196102553660046108e9565b60036020526000908152604090205481565b34801561027357600080fd5b5061020b61054a565b34801561028857600080fd5b50600854610119565b34801561029d57600080fd5b506101be6040518060400160405280600581526020016429aa19a6ad60d91b81525081565b3480156102ce57600080fd5b506101196102dd3660046108e9565b60046020526000908152604090205481565b3480156102fb57600080fd5b5061032561030a3660046108e9565b6001602052600090815260409020546001600160a01b031681565b6040516001600160a01b039091168152602001610123565b61020b61034b366004610981565b6105f7565b60006301ffc9a760e01b6001600160e01b03198316148061038157506303a24d0760e21b6001600160e01b03198316145b92915050565b60008181526007602052604090208054606091906103a4906109a3565b80601f01602080910402602001604051908101604052809291908181526020018280546103d0906109a3565b801561041d5780601f106103f25761010080835404028352916020019161041d565b820191906000526020600020905b81548152906001019060200180831161040057829003601f168201915b50505050509050919050565b8160000361044a5760405163c9de4e2160e01b815260040160405180910390fd5b8060000361046b576040516306155eeb60e11b815260040160405180910390fd5b600083900361048d576040516375379d4b60e01b815260040160405180910390fd5b600060086000815461049e906109f3565b918290555060008181526007602052604090209091506104bf858783610a71565b506000818152600360209081526040808320869055600482528083208690556001825280832080546001600160a01b0319163390811790915560029092529182902084905590517f8475f1ba3b06c1e11c870cbbf9753ca9a8292ea0b203262f682de476dc268f8c9061053b9084908990899089908990610b32565b60405180910390a25050505050565b336000908152600660205260408120549081900361057b57604051633c00845d60e11b815260040160405180910390fd5b336000818152600660205260408082208290555190919083908381818185875af1925050503d80600081146105cc576040519150601f19603f3d011682016040523d82523d6000602084013e6105d1565b606091505b50509050806105f357604051631c17f01960e21b815260040160405180910390fd5b5050565b60005460011461063a5760405162461bcd60e51b815260206004820152600a6024820152695245454e5452414e435960b01b604482015260640160405180910390fd5b600260009081558190036106615760405163c9de4e2160e01b815260040160405180910390fd5b600082815260046020526040902054811115610690576040516317b13c0f60e01b815260040160405180910390fd5b3415806106b657506000828152600260205260409020546106b2908290610b79565b3414155b156106d4576040516305bc3b0360e41b815260040160405180910390fd5b6000828152600160209081526040808320546004909252822080546001600160a01b03909216928492610708908490610b90565b909155505033600090815260056020908152604080832086845290915281208054849290610737908490610ba3565b90915550506040516000906001600160a01b0383169034908381818185875af1925050503d8060008114610787576040519150601f19603f3d011682016040523d82523d6000602084013e61078c565b606091505b50509050806107c3576001600160a01b038216600090815260066020526040812080543492906107bd908490610ba3565b90915550505b604080518581526020810185905233917f1cbc5ab135991bd2b6a4b034a04aa2aa086dac1371cb9b16b8b5e2ed6b036bed910160405180910390a2505060016000555050565b80356001600160a01b038116811461082057600080fd5b919050565b6000806040838503121561083857600080fd5b61084183610809565b946020939093013593505050565b60006020828403121561086157600080fd5b81356001600160e01b03198116811461087957600080fd5b9392505050565b60006020828403121561089257600080fd5b61087982610809565b600060208083528351808285015260005b818110156108c8578581018301518582016040015282016108ac565b506000604082860101526040601f19601f8301168501019250505092915050565b6000602082840312156108fb57600080fd5b5035919050565b6000806000806060858703121561091857600080fd5b843567ffffffffffffffff8082111561093057600080fd5b818701915087601f83011261094457600080fd5b81358181111561095357600080fd5b88602082850101111561096557600080fd5b6020928301999098509187013596604001359550909350505050565b6000806040838503121561099457600080fd5b50508035926020909101359150565b600181811c908216806109b757607f821691505b6020821081036109d757634e487b7160e01b600052602260045260246000fd5b50919050565b634e487b7160e01b600052601160045260246000fd5b600060018201610a0557610a056109dd565b5060010190565b634e487b7160e01b600052604160045260246000fd5b601f821115610a6c57600081815260208120601f850160051c81016020861015610a495750805b601f850160051c820191505b81811015610a6857828155600101610a55565b5050505b505050565b67ffffffffffffffff831115610a8957610a89610a0c565b610a9d83610a9783546109a3565b83610a22565b6000601f841160018114610ad15760008515610ab95750838201355b600019600387901b1c1916600186901b178355610b2b565b600083815260209020601f19861690835b82811015610b025786850135825560209485019460019092019101610ae2565b5086821015610b1f5760001960f88860031b161c19848701351681555b505060018560011b0183555b5050505050565b85815260806020820152836080820152838560a0830137600060a08583010152600060a0601f19601f87011683010190508360408301528260608301529695505050505050565b8082028115828204841417610381576103816109dd565b81810381811115610381576103816109dd565b80820180821115610381576103816109dd56fea2646970667358221220184e642a6b43ede10621f3623b6fd673bb8b2435efd4ad5fab62be2b83fa613064736f6c63430008110033",
    "linkReferences": {}
  },
  "methodIdentifiers": {
    "available(uint256)": "96e494e8",
    "balanceOf(address,uint256)": "00fdd58e",
    "buy(uint256,uint256)": "d6febde8",
    "mint(string,uint256,uint256)": "1c635ded",
    "minter(uint256)": "ac8d856c",
    "name()": "06fdde03",
    "price(uint256)": "26a49e37",
    "supply(uint256)": "35403023",
    "supportsInterface(bytes4)": "01ffc9a7",
    "symbol()": "95d89b41",
    "totalTokens()": "7e1c0c09",
    "uri(uint256)": "0e89341c",
    "withdraw()": "3ccfd60b",
    "withdrawableBalance(address)": "02b62938"
  },
  "id": 9
}